:100000000C9454000C9473000C9473000C947300C3
:100010000C9473000C9473000C9473000C94730094
:100020000C9473000C9473000C9473000C94730084
:100030000C9473000C94F1000C9473000C947300F6
:100040000C9473000C9473000C9473000C94730064
:100050000C9473000C9473000C9473000C94730054
:100060000C9473000C9473000C9473000C94730044
:100070000C9473000C9473000C9473000C94730034
:100080000C9473000C9473000C94730012022402FD
:100090004002590202032003250384034203520352
:1000A000840384036003770311241FBECFEFD0E4E1
:1000B000DEBFCDBF11E0A0E0B1E0ECEFFBE000E07F
:1000C0000BBF02C007900D92A831B107D9F721E00C
:1000D000A8E1B1E001C01D92A83FB207E1F70E947C
:1000E0008D030C94FC050C940000CF93DF9300D09B
:1000F00000D0CDB7DEB769837A838B839C838981F7
:100100009A81AB81BC818093000190930101A093FF
:100110000201B09303018091000190910101A0912F
:100120000201B09103018093190190931A01A093E9
:100130001B01B0931C0100000F900F900F900F90C7
:10014000DF91CF910895CF93DF93CDB7DEB781E8EC
:1001500090E02BE0FC01208388E890E02DE730E080
:10016000FC01318320838FE690E022E0FC012083B4
:1001700084E890E0FC01118210828091000190914E
:100180000101A0910201B0910301809319019093A4
:100190001A01A0931B01B0931C018FE590E02FE59D
:1001A00030E0F90120812068FC0120830000DF910C
:1001B000CF910895CF93DF93CDB7DEB781E890E07C
:1001C000FC0110820000DF91CF910895CF93DF935F
:1001D000CDB7DEB781E0809318010000DF91CF91A9
:1001E00008951F920F9200905F000F9211240090CB
:1001F0005B000F922F933F934F935F936F937F9387
:100200008F939F93AF93BF93EF93FF93CF93DF931E
:10021000CDB7DEB78091190190911A01A0911B0111
:10022000B0911C010197A109B10980931901909324
:100230001A01A0931B01B0931C01809119019091A8
:100240001A01A0911B01B0911C01892B8A2B8B2BC9
:1002500091F40E94E6008091000190910101A0912B
:100260000201B09103018093190190931A01A093A8
:100270001B01B0931C010000DF91CF91FF91EF9122
:10028000BF91AF919F918F917F916F915F914F91AE
:100290003F912F910F9000925B000F9000925F00B2
:1002A0000F901F901895CF93DF9300D01F92CDB77A
:1002B000DEB789837B836A8389818A3031F48A81BE
:1002C0009B81BC018DE00E94530180EC90E0FC0119
:1002D0008081882F90E080729927892BB1F386EC7A
:1002E00090E02981FC01208380E090E00F900F9046
:1002F0000F90DF91CF910895CF93DF93CDB7DEB705
:100300002C970FB6F894DEBF0FBECDBF6D837E83F2
:100310008F83988729873A874B875C878D819E8159
:10032000AF81B88529853A854B855C85BC01CD01B7
:100330000E943605DC01CB0189839A83AB83BC83A1
:1003400089819A81AB81BC81892B8A2B8B2B29F4E3
:1003500089859A85AB85BC8511C089859A85AB85D1
:10036000BC858D839E83AF83B88789819A81AB8159
:10037000BC8189879A87AB87BC87D0CFBC01CD0170
:100380002C960FB6F894DEBF0FBECDBFDF91CF9194
:100390000895CF93DF93CDB7DEB78AE790E02AE7E1
:1003A00030E0F9012081206EFC0120830000DF9104
:1003B000CF910895CF93DF9300D01F92CDB7DEB7D2
:1003C0009B838A8388E790E0FC01808191819093F0
:1003D0002F0180932E0185E290E020912E01309133
:1003E0002F01FC0120838BE290E020912E013091BF
:1003F0002F01232F3327FC0120838A819B81092E23
:10040000000CAA0BBB0B40E050E026E030E0841B60
:10041000950B2817390708F41DC18A5B9F4FFC0113
:100420000C94580580E290E0FC018081882F90E0D8
:1004300084709927892B29F481E090E09B838A833B
:100440000CC11B821A8209C180911D0190911E016D
:100450008436910584F420911F0130912001809110
:10046000120190911301281739072CF482E090E0D3
:100470009B838A83F2C083E090E09B838A83EDC0F4
:1004800020911F0130912001809112019091130160
:100490002817390749F41092200110921F0183E0B8
:1004A00090E09B838A83D9C081E090E09B838A831C
:1004B000D4C088E290E0FC01108288E790E0FC0163
:1004C0008081918190932F0180932E0180912E0144
:1004D00090912F01898380912E0190912F018F316E
:1004E00031F080912E0190912F018E3121F483E023
:1004F00090E09B838A8380911F0190912001880F57
:10050000991F805D9E4FFC01808191810897B1F415
:100510008981803F51F48BE290E020E4FC0120834C
:1005200084E090E09B838A8309C08BE290E020E224
:10053000FC01208383E090E09B838A8380911F01EC
:1005400090912001880F991F805D9E4FFC01808152
:100550009181049779F480912E0190912F018C3034
:1005600029F484E090E09B838A8304C083E090E0D8
:100570009B838A8380911F0190912001880F991F8E
:10058000805D9E4FFC0180819181029779F480917A
:100590002E0190912F01873229F484E090E09B8313
:1005A0008A8304C083E090E09B838A8380911F014B
:1005B00090912001880F991F805D9E4FFC018081E2
:1005C0009181019779F480912E0190912F018831CA
:1005D00029F484E090E09B838A8304C083E090E068
:1005E0009B838A8380912101909122010A9729F4AB
:1005F00086E090E09B838A8330C083E090E09B8319
:100600008A832BC080911F019091200101969093C5
:10061000200180931F0120911F01309120018091C2
:100620001201909113012817390729F485E090E011
:100630009B838A8312C083E090E09B838A830DC0F2
:1006400081E090E09B838A8308C081E090E09B83F7
:100650008A8303C01B821A8200008A819B81092E33
:10066000000CAA0BBB0B40E050E026E030E0841BFE
:10067000950B2817390708F448C0835B9F4FFC018E
:100680000C94580588E290E020911F0130912001E0
:10069000220F331F205D3E4FF90120813181FC0183
:1006A000208333C0109222011092210180911F01FA
:1006B0009091200101969093200180931F0125C005
:1006C00080911D0190911E01019690931E018093CF
:1006D0001D018091120190911301019690931301D5
:1006E000809312011092200110921F010EC01092EF
:1006F0001E0110921D01109213011092120110920E
:10070000200110921F0101C000008A819B810F907F
:100710000F900F90DF91CF9108950F931F93CF9378
:10072000DF93CDB7DEB761970FB6F894DEBF0FBE8B
:10073000CDBF81E290E0FC01108282E290E02FEFD9
:10074000FC01208384E290E02FEFFC01208385E20E
:1007500090E0FC01108287E290E02FEFFC01208303
:1007600088E290E0FC0110828AE290E02FEFFC0129
:1007700020838BE290E0FC01108283E291E0998B70
:10078000888B81E090E09E878D878FEF8F878F85A4
:100790008093230184E690E0A0E0B0E08093240100
:1007A00090932501A0932601B09327018091240105
:1007B00090912501A0912601B091270180932801F5
:1007C00090932901A0932A01B0932B018AED91E027
:1007D00090932D0180932C0188899989FC01818156
:1007E0009281A381B48189839A83AB83BC831E8267
:1007F0001D8225C08D819E81880F991F9E012F5FCC
:100800003F4F820F931F0F96FC0180819181FC0165
:10081000218132814381548189819A81AB81BC815C
:10082000BC01CD010E947C01DC01CB0189839A834C
:10083000AB83BC838D819E8101969E838D832D81A8
:100840003E818D859E8528173907A0F289819A817E
:10085000AB81BC81BC01CD010E9475000E94A30048
:100860000E94C90118861F823FC00E94AC05837098
:100870009078992324F401978C6F9F6F01969A8743
:10088000898789859A85892B29F481E090E09A8768
:1008900089871AC089859A85019729F482E090E0BA
:1008A0009A87898711C089859A85029729F484E0FF
:1008B00090E09A87898708C089859A85039721F4F3
:1008C00088E090E09A8789878F819885880F991FA3
:1008D000805D9E4F29853A85FC01318320838F817D
:1008E0009885019698878F838F81988584369105A6
:1008F0000CF4BBCF88E790E0FC018081918190935C
:100900002F0180932E011C861B86A0C08B859C85A1
:10091000880F991F9E012F5F3F4F820F931F0F96E5
:10092000FC0180819181FC012581368147815085C0
:100930008B859C85880F991FBE016F5F7F4F860F47
:10094000971F0F96FC0180819181FC01818192812A
:10095000A381B481281739074A075B0708F445C00B
:100960008B859C85880F991F9E012F5F3F4F820FBB
:10097000931F0F96FC01008111818B859C85880F48
:10098000991F9E012F5F3F4F820F931F0F96FC010F
:1009900080819181FC01218532858B859C85880F22
:1009A000991FAE014F5F5F4F840F951F0F96FC019B
:1009B00080819181FC018081082E000C990BF90146
:1009C0000995F80180838B859C85880F991F9E016E
:1009D0002F5F3F4F820F931F0F96FC018081918103
:1009E000FC0115821682178210868B859C85880FE4
:1009F000991F9E012F5F3F4F820F931F0F96FC019F
:100A0000608171818B859C85880F991F9E012F5F66
:100A10003F4F820F931F0F96FC0180819181FC0153
:100A2000258136814781508589819A81AB81BC813E
:100A3000820F931FA41FB51FFB0185839683A78395
:100A4000B0878B859C8501969C878B872B853C8501
:100A50008D859E852817390708F458CF00008091AE
:100A600018018823E1F31092180144CFA1E21A2E55
:100A7000AA1BBB1BFD010DC0AA1FBB1FEE1FFF1F42
:100A8000A217B307E407F50720F0A21BB30BE40B92
:100A9000F50B661F771F881F991F1A9469F76095D9
:100AA0007095809590959B01AC01BD01CF01089593
:100AB000EE0FFF1F0024001C0BBE0790F691E02DE7
:100AC00009948F929F92AF92BF92CF92DF92EF9252
:100AD000FF92CF93DF93EC01688179818A819B81BA
:100AE000611571058105910521F464E279ED8BE5CD
:100AF00097E02DE133EF41E050E00E94BB05490152
:100B00005A019B01AC01A7EAB1E40E94DA056B012E
:100B10007C01ACEEB4EFA50194010E94E805DC0174
:100B2000CB018C0D9D1DAE1DBF1DB7FF03C00197EE
:100B3000A109B04888839983AA83BB839F77DF91FB
:100B4000CF91FF90EF90DF90CF90BF90AF909F90AC
:100B50008F9008950C94610584E191E00C946105F7
:100B6000A0E0B0E08093140190931501A0931601CA
:100B7000B09317010895052E97FB1EF400940E9470
:100B8000D20557FD07D00E94360507FC03D04EF46E
:100B90000C94D20550954095309521953F4F4F4F7D
:100BA0005F4F089590958095709561957F4F8F4F19
:100BB0009F4F08950E94ED05A59F900DB49F900D45
:100BC000A49F800D911D11240895B7FF0C94DA05A0
:100BD0000E94DA05821B930B0895A29FB001B39F78
:100BE000C001A39F700D811D1124911DB29F700D36
:0C0BF000811D1124911D0895F894FFCF81
:100BFC000100000000000002000000005301000092
:080C0C0000006300010000007C
:00000001FF
