:100000000C9446000C9465000C9465000C946500FB
:100010000C9465000C9465000C9465000C946500CC
:100020000C9465000C9465000C9465000C946500BC
:100030000C9465000C94E3000C9465000C9465002E
:100040000C9465000C9465000C9465000C9465009C
:100050000C9465000C9465000C9465000C9465008C
:100060000C9465000C9465000C9465000C9465007C
:100070000C9465000C9465000C9465000C9465006C
:100080000C9465000C9465000C94650011241FBE4F
:10009000CFEFD0E4DEBFCDBF11E0A0E0B1E0E2E3FE
:1000A000FAE000E00BBF02C007900D92A831B10743
:1000B000D9F722E0A8E1B1E001C01D92A130B2075A
:1000C000E1F70E9480020C9417050C940000CF9376
:1000D000DF9300D000D0CDB7DEB769837A838B83FE
:1000E0009C8389819A81AB81BC818093000190932C
:1000F0000101A0930201B09303018091000190914E
:100100000101A0910201B091030180931901909324
:100110001A01A0931B01B0931C0100000F900F90D7
:100120000F900F90DF91CF910895CF93DF93CDB7CC
:10013000DEB781E890E02BE0FC01208388E890E0C6
:100140002DE730E0FC01318320838FE690E022E050
:10015000FC01208384E890E0FC01118210828091F0
:10016000000190910101A0910201B09103018093DF
:10017000190190931A01A0931B01B0931C018FE504
:1001800090E02FE530E0F90120812068FC01208318
:100190000000DF91CF910895CF93DF93CDB7DEB705
:1001A00081E890E0FC0110820000DF91CF9108957A
:1001B000CF93DF93CDB7DEB781E0809318010000C5
:1001C000DF91CF9108951F920F9200905F000F92E0
:1001D000112400905B000F922F933F934F935F93F6
:1001E0006F937F938F939F93AF93BF93EF93FF93FF
:1001F000CF93DF93CDB7DEB78091190190911A01AB
:10020000A0911B01B0911C010197A109B109809334
:10021000190190931A01A0931B01B0931C018091C6
:10022000190190911A01A0911B01B0911C01892B19
:100230008A2B8B2B91F40E94D80080910001909121
:100240000101A0910201B0910301809319019093E3
:100250001A01A0931B01B0931C010000DF91CF9104
:10026000FF91EF91BF91AF919F918F917F916F918E
:100270005F914F913F912F910F9000925B000F90F3
:1002800000925F000F901F901895CF93DF9300D0DE
:100290001F92CDB7DEB789837B836A8389818A30D9
:1002A00031F48A819B81BC018DE00E94450180EC84
:1002B00090E0FC018081882F90E080729927892B43
:1002C000B1F386EC90E02981FC01208380E090E08E
:1002D0000F900F900F90DF91CF910895CF93DF9300
:1002E000CDB7DEB72C970FB6F894DEBF0FBECDBFEB
:1002F0006D837E838F83988729873A874B875C87B6
:100300008D819E81AF81B88529853A854B855C8535
:10031000BC01CD010E945A04DC01CB0189839A8380
:10032000AB83BC8389819A81AB81BC81892B8A2B69
:100330008B2B29F489859A85AB85BC8511C089856D
:100340009A85AB85BC858D839E83AF83B887898171
:100350009A81AB81BC8189879A87AB87BC87D0CFD4
:10036000BC01CD012C960FB6F894DEBF0FBECDBFF9
:10037000DF91CF910895CF93DF93CDB7DEB78AE7B2
:1003800090E02AE730E0F9012081206EFC01208313
:100390000000DF91CF910895CF93DF9300D0CDB7C8
:1003A000DEB79A83898385E290E021E0FC01208317
:1003B00088E790E0FC0180819181909338018093DF
:1003C000370189819A818230910571F183309105DD
:1003D0002CF4009731F0019721F13BC00397A9F16C
:1003E00038C080911D0190911E018436910584F4DE
:1003F00020911F01309120018091120190911301F1
:10040000281739072CF481E090E09A83898321C072
:100410001092200110921F0182E090E09A8389835C
:1004200018C01A82198215C0809137019091380145
:100430004F9731F080913701909138014E9741F4F8
:1004400083E090E09A83898303C01A82198201C0F5
:10045000000089819A8182309105E1F18330910514
:100460002CF4009731F00197A1F035C00397D9F033
:1004700032C088E290E020911F0130912001220FCC
:10048000331F275C3E4FF90120813181FC0120831D
:1004900022C080911F01909120010196909320012C
:1004A00080931F0118C080911D0190911E0101963B
:1004B00090931E0180931D01809112019091130170
:1004C00001969093130180931201109220011092D3
:1004D0001F0101C0000089819A810F900F90DF9168
:1004E000CF910895CF93DF9300D0CDB7DEB79A8335
:1004F000898389819A810F900F90DF91CF91089520
:100500000F931F93CF93DF93CDB7DEB763970FB6EB
:10051000F894DEBF0FBECDBF81E290E0FC011082F7
:1005200082E290E02FEFFC01208384E290E02FEF45
:10053000FC01208385E290E0FC01108287E290E0DC
:100540002FEFFC01208388E290E0FC01108281E221
:1005500091E0998B888B8CE291E09B8B8A8B82E077
:1005600090E09E878D878FEF8F878F858093210105
:1005700084E690E0A0E0B0E0809322019093230114
:10058000A0932401B0932501809122019091230131
:10059000A0912401B0912501809326019093270119
:1005A000A0932801B09329018CEC91E090932B014A
:1005B00080932A018F8580932C0184E690E0A0E04F
:1005C000B0E080932D0190932E01A0932F01B09362
:1005D000300180912D0190912E01A0912F01B091B9
:1005E00030018093310190933201A0933301B09395
:1005F000340182E792E09093360180933501888937
:100600009989FC0181819281A381B48189839A8334
:10061000AB83BC831E821D8225C08D819E81880F85
:10062000991F9E012F5F3F4F820F931F0F96FC0172
:1006300080819181FC0121813281438154818981B2
:100640009A81AB81BC81BC01CD010E946E01DC01AD
:10065000CB0189839A83AB83BC838D819E81019674
:100660009E838D832D813E818D859E852817390738
:10067000A0F289819A81AB81BC81BC01CD010E942D
:1006800067000E9495000E94BB0188E790E0FC0192
:1006900080819181909338018093370118861F8261
:1006A0003FC00E94C70483709078992324F4019777
:1006B0008C6F9F6F01969A87898789859A85892B88
:1006C00029F481E090E09A8789871AC089859A8504
:1006D000019729F482E090E09A87898711C0898583
:1006E0009A85029729F484E090E09A87898708C068
:1006F00089859A85039721F488E090E09A87898715
:100700008F819885880F991F875C9E4F29853A8530
:10071000FC01318320838F819885019698878F8390
:100720008F819885843691050CF4BBCF88E790E0E3
:10073000FC0180819181909338018093370185E29B
:1007400090E02091370130913801FC0120831C8614
:100750001B86A0C08B859C85880F991F9E012F5FEB
:100760003F4F820F931F0F96FC0180819181FC0106
:1007700025813681478150858B859C85880F991FFF
:10078000BE016F5F7F4F860F971F0F96FC01808120
:100790009181FC0181819281A381B481281739075D
:1007A0004A075B0708F445C08B859C85880F991F15
:1007B0009E012F5F3F4F820F931F0F96FC01008118
:1007C00011818B859C85880F991F9E012F5F3F4F5C
:1007D000820F931F0F96FC0180819181FC0121857E
:1007E00032858B859C85880F991FAE014F5F5F4FC7
:1007F000840F951F0F96FC0180819181FC018081FF
:10080000082E000C990BF9010995F80180838B855E
:100810009C85880F991F9E012F5F3F4F820F931F6A
:100820000F96FC0180819181FC011582168217824E
:1008300010868B859C85880F991F9E012F5F3F4FE7
:10084000820F931F0F96FC01608171818B859C85BF
:10085000880F991F9E012F5F3F4F820F931F0F96A6
:10086000FC0180819181FC01258136814781508581
:1008700089819A81AB81BC81820F931FA41FB51F10
:10088000FB0185839683A783B0878B859C85019622
:100890009C878B872B853C858D859E8528173907FE
:1008A00008F458CF0000809118018823E1F31092DA
:1008B00018013CCFA1E21A2EAA1BBB1BFD010DC0E3
:1008C000AA1FBB1FEE1FFF1FA217B307E407F50700
:1008D00020F0A21BB30BE40BF50B661F771F881FDC
:1008E000991F1A9469F760957095809590959B0172
:1008F000AC01BD01CF0108958F929F92AF92BF923C
:10090000CF92DF92EF92FF92CF93DF93EC01688159
:1009100079818A819B81611571058105910521F499
:1009200064E279ED8BE597E02DE133EF41E050E0B3
:100930000E94D60449015A019B01AC01A7EAB1E427
:100940000E94F5046B017C01ACEEB4EFA5019401AB
:100950000E940305DC01CB018C0D9D1DAE1DBF1D4A
:10096000B7FF03C00197A109B04888839983AA8380
:10097000BB839F77DF91CF91FF90EF90DF90CF9077
:10098000BF90AF909F908F9008950C947C0484E169
:1009900091E00C947C04A0E0B0E08093140190936B
:1009A0001501A0931601B09317010895052E97FB2A
:1009B0001EF400940E94ED0457FD07D00E945A04D3
:1009C00007FC03D04EF40C94ED04509540953095FF
:1009D00021953F4F4F4F5F4F0895909580957095AB
:1009E00061957F4F8F4F9F4F08950E940805A59FE7
:1009F000900DB49F900DA49F800D911D112408951A
:100A0000B7FF0C94F5040E94F504821B930B089524
:100A1000A29FB001B39FC001A39F700D811D11243F
:100A2000911DB29F700D811D1124911D0895F894A0
:020A3000FFCFF6
:100A3200010000000000000200000000450100006B
:080A42000000010001000000AA
:00000001FF
